:020000040800F2
:1000000000000220991E0008751C00087D1C0008D5
:10001000851C00088D1C0008951C000800000000CD
:100020000000000000000000000000009D1C00080F
:10003000AB1C000800000000B91C0008C71C000829
:10004000E91E0008E91E0008E91E0008E91E000874
:10005000E91E0008E91E0008E91E0008E91E000864
:10006000E91E0008E91E0008E91E0008E91E000854
:10007000E91E0008E91E0008E91E0008E91E000844
:10008000E91E0008E91E0008E91E00080000000043
:10009000000000000000000000000000E91E000851
:1000A000E91E0008E91E0008E91E0008E91E000814
:1000B000E91E0008E91E0008E91E0008E91E000804
:1000C000E91E0008E91E0008E91E0008E91E0008F4
:1000D000E91E0008E91E0008E91E000800000000F3
:1000E000E91E0008E91E0008E91E000800000000E3
:1000F000000000000000000000000000E91E0008F1
:1001000000000000E91E0008E91E0008E91E0008C2
:1001100000000000000000000000000000000000DF
:10012000E91E0008E91E0008E91E0008E91E000893
:10013000E91E0008000000000000000000000000B0
:10014000000000000000000000000000D51C0008B6
:10015000E91E0008E91E0008E91E0008E91E000863
:10016000E91E0008E91E0008000000000000000071
:10017000000000000000000000000000000000007F
:1001800000000000E91E0008000000000000000060
:08019000E91E0008E91E000849
:1001A00010B5054C237833B9044B13B10448AFF3B1
:1001B00000800123237010BDC40200200000000055
:1001C00054E2000808B5034B1BB103490348AFF3E1
:1001D000008008BD00000000C802002054E20008B2
:1001E00001F0FF01102A2BDB10F0070F08D010F8E8
:1001F000013B013A8B422DD010F0070F42B3F6D1EC
:10020000F0B441EA012141EA014122F007047FF004
:1002100000070023F0E80256083C85EA010586EA5B
:10022000010685FA47F5A3FA87F586FA47F6A5FA97
:1002300087F68EB9EED1F0BC01F0FF0102F00702A3
:1002400032B110F8013B013A83EA010313B1F8D14E
:100250000020704701387047002D06BF354603382F
:10026000073815F0010F07D1013015F4807F02BF68
:10027000013015F4C03F0130F0BC0138704700BFB9
:10028000034613F8012B002AFBD1181A01387047D6
:1002900081F0004102E000BF83F0004330B54FEA37
:1002A00041044FEA430594EA050F08BF90EA020FA4
:1002B0001FBF54EA000C55EA020C7FEA645C7FEA37
:1002C000655C00F0E2804FEA5454D4EB5555B8BF5A
:1002D0006D420CDD2C4480EA020281EA030382EACB
:1002E000000083EA010180EA020281EA0303362D5D
:1002F00088BF30BD11F0004F4FEA01314FF4801C30
:100300004CEA113102D0404261EB410113F0004F41
:100310004FEA03334CEA133302D0524263EB4303F8
:1003200094EA050F00F0A780A4F10104D5F1200E96
:100330000DDB02FA0EFC22FA05F2801841F10001F1
:1003400003FA0EF2801843FA05F359410EE0A5F1C5
:1003500020050EF1200E012A03FA0EFC28BF4CF0F6
:10036000020C43FA05F3C01851EBE37101F00045AC
:1003700007D54FF0000EDCF1000C7EEB00006EEBB9
:100380000101B1F5801F1BD3B1F5001F0CD3490843
:100390005FEA30004FEA3C0C04F101044FEA44529A
:1003A00012F5800F80F09A80BCF1004F08BF5FEA21
:1003B000500C50F1000041EB045141EA050130BD01
:1003C0005FEA4C0C404141EB0101013C28BFB1F513
:1003D000801FE9D291F0000F04BF01460020B1FA5E
:1003E00081F308BF2033A3F10B03B3F120020CDA31
:1003F0000C3208DD02F1140CC2F10C0201FA0CF00F
:1004000021FA02F10CE002F11402D8BFC2F1200C73
:1004100001FA02F120FA0CFCDCBF41EA0C01904029
:10042000E41AA2BF01EB0451294330BD6FEA040472
:100430001F3C1CDA0C340EDC04F11404C4F120025D
:1004400020FA04F001FA02F340EA030021FA04F36F
:1004500045EA030130BDC4F10C04C4F1200220FAC6
:1004600002F001FA04F340EA0300294630BD21FA04
:1004700004F0294630BD94F0000F83F4801306BFCA
:1004800081F480110134013D4EE77FEA645C18BFBE
:100490007FEA655C29D094EA050F08BF90EA020F55
:1004A00005D054EA000C04BF1946104630BD91EA4D
:1004B000030F1EBF0021002030BD5FEA545C05D150
:1004C0004000494128BF41F0004130BD14F580048F
:1004D0003CBF01F5801130BD01F0004545F0FE4103
:1004E00041F470014FF0000030BD7FEA645C1ABF38
:1004F000194610467FEA655C1CBF0B46024650EA6F
:10050000013406BF52EA033591EA030F41F400219A
:1005100030BD00BF90F0000F04BF0021704730B520
:100520004FF4806404F132044FF000054FF00001F5
:1005300050E700BF90F0000F04BF0021704730B5B6
:100540004FF4806404F1320410F0004548BF40428B
:100550004FF000013EE700BF42004FEAE2014FEAE0
:1005600031014FEA02701FBF12F07F4393F07F4FBB
:1005700081F06051704732F07F4208BF704793F0BE
:100580007F4F04BF41F40021704730B54FF46074D1
:1005900001F0004521F000411CE700BF50EA0102D4
:1005A00008BF704730B54FF000050AE050EA01027D
:1005B00008BF704730B511F0004502D5404261EBED
:1005C00041014FF4806404F132045FEA915C3FF42E
:1005D000D8AE4FF003025FEADC0C18BF03325FEACB
:1005E000DC0C18BF033202EBDC02C2F1200300FA7C
:1005F00003FC20FA02F001FA03FE40EA0E0021FAA1
:1006000002F11444BDE600BF70B54FF0FF0C4CF48E
:10061000E06C1CEA11541DBF1CEA135594EA0C0F40
:1006200095EA0C0F00F0DEF82C4481EA030621EA7B
:100630004C5123EA4C5350EA013518BF52EA0335B6
:1006400041F4801143F4801338D0A0FB02CE4FF068
:100650000005E1FB02E506F00042E0FB03E54FF098
:100660000006E1FB03569CF0000F18BF4EF0010E90
:10067000A4F1FF04B6F5007F64F5407404D25FEA8C
:100680004E0E6D4146EB060642EAC62141EA55513F
:100690004FEAC52040EA5E504FEACE2EB4F1FD0C81
:1006A00088BFBCF5E06F1ED8BEF1004F08BF5FEAFF
:1006B000500E50F1000041EB045170BD06F00046B1
:1006C00046EA010140EA020081EA0301B4EB5C045E
:1006D000C2BFD4EB0C0541EA045170BD41F4801156
:1006E0004FF0000E013C00F3AB8014F1360FDEBF7B
:1006F000002001F0004170BDC4F10004203C35DA57
:100700000C341BDC04F11404C4F1200500FA05F3D9
:1007100020FA04F001FA05F240EA020001F000427A
:1007200021F0004110EBD37021FA04F642EB0601F0
:100730005EEA430E08BF20EAD37070BDC4F10C041A
:10074000C4F1200500FA04F320FA05F001FA04F2DE
:1007500040EA020001F0004110EBD37041F10001CA
:100760005EEA430E08BF20EAD37070BDC4F12005D5
:1007700000FA05F24EEA020E20FA04F301FA05F23D
:1007800043EA020321FA04F001F0004121FA04F2E5
:1007900020EA020000EBD3705EEA430E08BF20EAB5
:1007A000D37070BD94F0000F0FD101F000464000EF
:1007B00041EB010111F4801F08BF013CF7D041EA71
:1007C000060195F0000F18BF704703F00046520075
:1007D00043EB030313F4801F08BF013DF7D043EA46
:1007E0000603704794EA0C0F0CEA135518BF95EAFC
:1007F0000C0F0CD050EA410618BF52EA4306D1D183
:1008000081EA030101F000414FF0000070BD50EAA1
:10081000410606BF1046194652EA430619D094EA2B
:100820000C0F02D150EA013613D195EA0C0F05D115
:1008300052EA03361CBF104619460AD181EA030169
:1008400001F0004141F0FE4141F470014FF0000021
:1008500070BD41F0FE4141F4780170BD70B54FF0BC
:10086000FF0C4CF4E06C1CEA11541DBF1CEA13553C
:1008700094EA0C0F95EA0C0F00F0A7F8A4EB05041E
:1008800081EA030E52EA03354FEA013100F0888015
:100890004FEA03334FF0805545EA131343EA1263DE
:1008A0004FEA022245EA111545EA10654FEA002693
:1008B0000EF000419D4208BF964244F1FD0404F54C
:1008C000407402D25B084FEA3202B61A65EB0305A8
:1008D0005B084FEA32024FF480104FF4002CB6EB65
:1008E000020E75EB030E22BFB61A754640EA0C00E5
:1008F0005B084FEA3202B6EB020E75EB030E22BF25
:10090000B61A754640EA5C005B084FEA3202B6EB65
:10091000020E75EB030E22BFB61A754640EA9C0024
:100920005B084FEA3202B6EB020E75EB030E22BFF4
:10093000B61A754640EADC0055EA060E18D04FEAB2
:10094000051545EA16754FEA06164FEAC30343EA52
:1009500052734FEAC2025FEA1C1CC0D111F4801F1F
:100960000BD141EA00014FF000004FF0004CB6E718
:1009700011F4801F04BF01430020B4F1FD0C88BFB7
:10098000BCF5E06F3FF6AFAEB5EB030C04BFB6EBC2
:10099000020C5FEA500C50F1000041EB045170BDB5
:1009A0000EF0004E4EEA113114EB5C04C2BFD4EBE2
:1009B0000C0541EA045170BD41F480114FF0000E66
:1009C000013C90E645EA060E8DE60CEA135594EAE2
:1009D0000C0F08BF95EA0C0F3FF43BAF94EA0C0FE5
:1009E0000AD150EA01347FF434AF95EA0C0F7FF45A
:1009F00025AF104619462CE795EA0C0F06D152EAAE
:100A000003353FF4FDAE1046194622E750EA410691
:100A100018BF52EA43067FF4C5AE50EA41047FF4A2
:100A20000DAF52EA43057FF4EBAE12E74FF0FF3C07
:100A300006E000BF4FF0010C02E000BF4FF0010CD8
:100A40004DF804CD4FEA410C7FEA6C5C4FEA430C51
:100A500018BF7FEA6C5C1BD001B050EA410C0CBFA0
:100A600052EA430C91EA030F02BF90EA020F002002
:100A7000704710F1000F91EA030F58BF994208BF69
:100A800090422CBFD8176FEAE37040F00100704726
:100A90004FEA410C7FEA6C5C02D150EA013C07D17D
:100AA0004FEA430C7FEA6C5CD6D152EA033CD3D0C8
:100AB0005DF8040B704700BF8446104662468C46C2
:100AC0001946634600E000BF01B5FFF7B7FF0028F5
:100AD00048BF10F1000F01BD4DF808EDFFF7F4FF1E
:100AE0000CBF012000205DF808FB00BF4DF808EDA9
:100AF000FFF7EAFF34BF012000205DF808FB00BFCC
:100B00004DF808EDFFF7E0FF94BF012000205DF8ED
:100B100008FB00BF4DF808EDFFF7CEFF94BF0120A2
:100B200000205DF808FB00BF4DF808EDFFF7C4FF9B
:100B300034BF012000205DF808FB00BF4FEA410CE4
:100B40007FEA6C5C02D150EA013C0AD14FEA430CC7
:100B50007FEA6C5C02D152EA033C02D14FF0000004
:100B600070474FF0010070474FEA410212F5001242
:100B700015D211D56FF47873B3EB625212D94FEAE4
:100B8000C12343F0004343EA505311F0004F23FACE
:100B900002F018BF404270474FF00000704750EA23
:100BA000013005D111F0004008BF6FF000407047E0
:100BB0004FF00000704700BF53B94AB9002908BF81
:100BC00000281CBF4FF0FF314FF0FF3000F06AB932
:100BD000ADF1080C6DE904CE00F006F8DDF804E094
:100BE000DDE9022304B070472DE9F047089D0C466B
:100BF000002B4ED194468C458646B2FA82F262D9D9
:100C00004AB1C2F12003914020FA03F30CFA02FC2E
:100C1000194300FA02FE4FEA1C471FFA8CF6B1FB9B
:100C2000F7F44FEA1E4307FB141143EA014304FBA8
:100C300006F199420AD91CEB030304F1FF3080F05E
:100C40001281994240F20F81023C6344591A1FFA03
:100C50008EF3B1FBF7F007FB101143EA014300FBF1
:100C600006F69E420AD91CEB030300F1FF3180F027
:100C7000FC809E4240F2F980634402389B1B40EAAC
:100C8000044000211DB1D3400022C5E90032BDE877
:100C9000F0878B4205D90DB1C5E900010021084656
:100CA000F5E7B3FA83F1002946D1A34202D390427B
:100CB000C0F0F080861A64EB03030120002DE6D01B
:100CC000C5E90063E3E7002A40F09080A1EB0C0443
:100CD0004FEA1C481FFA8CF70121B4FBF8F64FEAE3
:100CE0001E4308FB164443EA044307FB06F0984200
:100CF00008D91CEB030306F1FF3402D2984200F23C
:100D0000CD8026461C1A1FFA8EF3B4FBF8F008FBC0
:100D1000104443EA044300FB07F79F4208D91CEB49
:100D2000030300F1FF3402D29F4200F2B08020465C
:100D3000DB1B40EA0640A5E7C1F120068B4022FA02
:100D400006F71F4320FA06FC04FA01F343EA0C03FA
:100D5000F44000FA01F8380C4FEA1349B4FBF0FEF6
:100D60001FFA87FC00FB1E4449EA04440EFB0CF901
:100D7000A14502FA01F20AD93C190EF1FF3A80F0BE
:100D80008480A14540F28180AEF1020E3C44A4EB88
:100D900009041FFA83F9B4FBF0F300FB134449EA9A
:100DA000044403FB0CFCA44507D93C1903F1FF30B4
:100DB00067D2A44565D9023B3C4443EA0E40A0FB00
:100DC0000293A4EB0C049C42CE469C4651D34ED0D9
:100DD00055B1B8EB0E0364EB0C0404FA06F6CB40F5
:100DE0001E43CC40C5E90064002150E7C2F1200356
:100DF00020FA03F10CFA02FC24FA03F394400C43AA
:100E00004FEA1C4800FA02FE1FFA8CF7B3FBF8F019
:100E100008FB1031230C43EA014300FB07F1994220
:100E200008D91CEB030300F1FF362CD299422AD9D2
:100E3000023863445B1AA4B2B3FBF8F108FB113328
:100E400044EA034401FB07F3A34208D91CEB040462
:100E500001F1FF3613D2A34211D902396444E41AD6
:100E600041EA004139E70446F0E6084606E7C8458E
:100E7000AED2B9EB020E63EB070C0138A8E731469E
:100E8000EDE7034699E73046D4E7D6467FE763446B
:100E900002384DE70646234608460FE7023E634404
:100EA00030E700BF704700BF80B586B004AF03468F
:100EB000FB710B46BB7113467B71FB795B00FB71C9
:100EC000FB7999B2BB799AB20A2302930123019369
:100ED0007B1D00930123044801F0ACFC0346184637
:100EE0000837BD4680BD00BFE002002080B586B057
:100EF00004AF3A601A460346FB710B46BB711346BA
:100F00007B717B79012B06D9FB79192B03D1BB7936
:100F100063F07F03BB71FB795B00FB71FB7999B2D6
:100F2000BB7998B27B799BB27A79029201933B6844
:100F3000009301230246034801F076FD00BF083705
:100F4000BD4680BDE002002080B500AF27222021F1
:100F50001920FFF7A9FF882223211920FFF7A4FFFA
:100F600000BF80BD80B586B002AF0346FB71FB7940
:100F700063F07F03FB71FB799BB2FB8100220821A8
:100F80000C4801F0DFFA07F10C0207F10E01022311
:100F900000930223084805F0DBFA012208210548E6
:100FA00001F0D0FABB891B0A9BB2DBB2184610379E
:100FB000BD4680BD00100240C403002080B584B04F
:100FC00000AF03460A46FB711346BB71FB791AB2A8
:100FD000BB791B021BB213431BB29BB2FB810022E5
:100FE0000821094801F0AEFA07F10E01022302229E
:100FF000064805F050F801220821034801F0A2FA42
:1010000000BF1037BD4680BD00100240C403002061
:1010100080B582B000AF03463960FB711346BB71E7
:10102000FB7963F03F03DBB2FB71002208210C481F
:1010300001F088FAF91D0A2301220A4805F02BF86D
:10104000BB799AB2BB793968064805F068F9012284
:101050000821034801F076FA00BF0837BD4680BD7D
:1010600000100240C403002080B582B000AF0F2002
:10107000FFF778FF0346FB71FB79D42B04D0FB7993
:10108000D32B01D000BFFDE70F212020FFF796FFF3
:1010900000BF0837BD4680BD80B588B000AF3B1D9E
:1010A0000233FB613B1D0833BB61AA233B71AB23B9
:1010B0007B710623FA6928211920FFF717FF062202
:1010C000B9692820FFF7A4FF3B1D1221184609F03B
:1010D000E1FF642000F07CFF00BF2037BD4680BDEB
:1010E00080B487B000AFF860B9601346FB71FA793D
:1010F00013469B0013445B007B61BB68002B04D14B
:10110000FB681B687A695A6313E0BB68042B04D13F
:10111000FB681A687B6993630BE0BB68082B04D1FA
:10112000FB681A687B69D36303E0FB681A687B6914
:10113000136400BF1C37BD465DF8047B704780B464
:1011400083B000AF396011461A460346FB710B4667
:10115000BB7113467B71FA7997F906309A4203DB2B
:101160004FF0FF333B6006E0FA7997F905309A4279
:1011700001DC01233B6000BF0C37BD465DF8047BFA
:101180007047000080B582B000AF00F0AFFE00F005
:10119000DBF800F041F900F0ABFA00F05DF900F087
:1011A00089F900F0B5F900F0E1F909F025FE00F049
:1011B00013FA5C4B1B681A685A4B1B6842F04002DA
:1011C0001A6001220821584801F0BCF9FFF74CFFD2
:1011D000FFF7BAFE554B1B681A68544B1B6842F068
:1011E00001021A60524805F0EFFC0021504805F05A
:1011F0009FFD04214E4805F09BFD0C214C4805F055
:1012000097FD01237B7101233B710023FB710023B8
:10121000BB71484B1B78002B7BD0474B93F90030B8
:10122000002B06D001224FF48041444801F08AF996
:1012300005E000224FF48041404801F083F9FB793A
:101240001A4604213A48FFF74BFF3B4B1B7A412BD0
:101250000BD1002200213648FFF742FFBB791A4626
:101260000C213348FFF73CFF0AE000220C213048F4
:10127000FFF736FFBB791A4600212D48FFF730FFF4
:101280002D4B93F90030002B14D02B4B5B682C4A6C
:1012900082FB0312D210DB17D31ADAB297F90530AA
:1012A000DBB212FB03F3DBB21A46920013445B007D
:1012B000DBB207E097F90530DBB21A46920013441F
:1012C0005B00DBB2FA791344FB711B4B1B69C3F162
:1012D00064031C4AA2FB03231B09DAB297F904300A
:1012E000DBB212FB03F3DBB21A46920013445B003D
:1012F000DAB2BB791344BB71791DF87900236422FB
:10130000FFF71DFF391DB87900236422FFF717FF8F
:1013100004E04FF48041094801F02DF9FFF7BCFECD
:1013200077E700BFC403002000100240E002002065
:101330001C0400204C07002050070020000C024035
:1013400067666666CDCCCCCC80B594B000AF07F1B3
:1013500020033022002118460BF059F807F10C0346
:1013600000221A605A609A60DA601A610023BB603A
:10137000274B1B6C264A43F080531364244B1B6C91
:1013800003F08053BB60BB6800237B60214B1B686C
:10139000204A43F4404313601E4B1B6803F4404350
:1013A0007B607B6801233B624FF480337B620223C6
:1013B000BB634FF48003FB6304233B64A8237B647B
:1013C0000423BB640723FB6407F12003184604F0E1
:1013D00003F80346002B01D000F064FA0F23FB60F2
:1013E00002233B6100237B614FF48053BB610023E8
:1013F000FB6107F10C030221184604F065FA03466D
:10140000002B01D000F04EFA00BF5037BD4680BD22
:10141000003802400070004080B586B000AF3B4607
:1014200000221A605A609A60DA601A615A610123D8
:101430003B60C823BB6005237B600223FB603B4607
:10144000184604F04DFC0346002B01D000F02AFAA8
:1014500000BF1837BD4680BD80B500AF124B134AA0
:101460001A60114B124A5A600F4B00229A600E4BC1
:101470000022DA600C4B4FF480421A610A4B0022C2
:101480005A61094B00229A61074B0022DA61064B30
:1014900000221A62044801F089F80346002B01D0AB
:1014A00000F000FA00BF80BDE002002000540040C0
:1014B000A086010080B500AF124B134A1A60114B91
:1014C0004FF400725A600F4B00229A600D4B0022BD
:1014D000DA600C4B00221A610A4B0C4A5A61094B24
:1014E00000229A61074B0022DA61064B01221A6240
:1014F000044802F07FF80346002B01D000F0D2F937
:1015000000BF80BD34030020003800400077010098
:1015100080B500AF134B144A1A60124B4FF400729F
:101520005A60104B00229A600E4B0022DA600D4B7D
:101530004FF400721A610B4B4BF680325A61094B23
:1015400000229A61074B0022DA61064B00221A62E0
:10155000044802F04FF80346002B01D000F0A2F936
:1015600000BF80BD7C030020003C004080B500AF80
:10157000174B184A1A60164B4FF482725A60144B7C
:1015800000229A60124B0022DA60114B02221A618B
:101590000F4B01225A610E4B4FF400729A610C4BB3
:1015A0001822DA610A4B00221A62094B00225A62A1
:1015B000074B00229A62064B0A22DA62044804F0C2
:1015C000E1FC0346002B01D000F06CF900BF80BDA8
:1015D000C40300200030014080B58EB000AF07F199
:1015E000280300221A605A609A60DA6007F120032B
:1015F00000221A605A603B1D00221A605A609A60ED
:10160000DA601A615A619A61374B384A1A60364B70
:1016100053225A60344B00229A60334B40F2E73237
:10162000DA60314B00221A612F4B00229A612E485A
:1016300005F07AFA0346002B01D000F033F94FF49D
:101640008053BB6207F128031946274805F0E2FCE6
:101650000346002B01D000F025F9234805F00EFBCE
:101660000346002B01D000F01DF900233B6200234C
:101670007B6207F1200319461B4806F06BF803460E
:10168000002B01D000F00EF960237B600023BB60CB
:101690000023FB6000237B613B1D0022194612489A
:1016A00005F0F6FB0346002B01D000F0FBF83B1DD4
:1016B000042219460C4805F0EBFB0346002B01D031
:1016C00000F0F0F83B1D0C221946074805F0E0FB3E
:1016D0000346002B01D000F0E5F8034800F090FA33
:1016E00000BF3837BD4680BD1C0400200008004004
:1016F00080B58CB000AF07F11C0300221A605A605D
:101700009A60DA601A610023BB61614B1B6B604A0F
:1017100043F0100313635E4B1B6B03F01003BB61BC
:10172000BB6900237B615A4B1B6B594A43F004038E
:101730001363574B1B6B03F004037B617B6900232E
:101740003B61534B1B6B524A43F080031363504B76
:101750001B6B03F080033B613B690023FB604C4B38
:101760001B6B4B4A43F001031363494B1B6B03F0A4
:101770000103FB60FB680023BB60454B1B6B444AC5
:1017800043F002031363424B1B6B03F00203BB6085
:10179000BB6800237B603E4B1B6B3D4A43F0080354
:1017A00013633B4B1B6B03F008037B607B680022D9
:1017B0000821384800F0C6FE01220121364800F019
:1017C000C1FE002244F21001344800F0BBFE0423A5
:1017D000FB6100233B6200237B6207F11C03194677
:1017E0002C4800F02BFD0823FB6101233B62002302
:1017F0007B620223BB6207F11C031946254800F0F7
:101800001DFD3223FB614FF490133B6200237B628A
:1018100007F11C0319461F4800F010FD0123FB616E
:1018200001233B6200237B620023BB6207F11C03A0
:101830001946194800F002FD0123FB614FF4901393
:101840003B6200237B6207F11C031946144800F039
:10185000F5FC44F21003FB6101233B6200237B6231
:101860000023BB6207F11C0319460C4800F0E6FC9C
:101870002023FB6100233B6200237B6207F11C03F2
:101880001946064800F0DAFC00BF3037BD4680BD7F
:10189000003802400010024000080240000C0240E4
:1018A0000000024080B400AF72B600BF00BFFDE789
:1018B00080B582B000AF00237B60104B5B6C0F4A99
:1018C00043F4804353640D4B5B6C03F480437B60B3
:1018D0007B6800233B60094B1B6C084A43F0805334
:1018E0001364064B1B6C03F080533B603B6807207E
:1018F00000F062FC00BF0837BD4680BD00380240E2
:1019000080B58AB000AF786007F1140300221A6036
:101910005A609A60DA601A617B681B68194A9342C0
:101920002CD100233B61184B1B6B174A43F0020379
:101930001363154B1B6B03F002033B613B694FF4D0
:1019400010737B611223BB610123FB6100233B62A7
:1019500004237B6207F1140319460C4800F06EFC67
:101960000023FB60084B1B6C074A43F4001313640D
:10197000054B1B6C03F40013FB60FB6800BF2837AA
:10198000BD4680BD005400400038024000040240C3
:1019900080B58EB000AF786007F1240300221A6092
:1019A0005A609A60DA601A617B681B68594A9342F0
:1019B0005CD100233B62584B1B6C574A43F4804375
:1019C0001364554B1B6C03F480433B623B6A00235A
:1019D000FB61514B1B6B504A43F0040313634E4BA6
:1019E0001B6B03F00403FB61FB690023BB614A4BE3
:1019F0001B6B494A43F002031363474B1B6B03F015
:101A00000203BB61BB6908237B620223BB62002324
:101A1000FB6200233B6305237B6307F12403194624
:101A20003E4800F00BFC4FF4A0537B620223BB62E4
:101A30000023FB6200233B6305237B6307F1240340
:101A40001946374800F0FAFB4FF480437B620223CB
:101A5000BB620023FB6200233B6306237B6307F129
:101A6000240319462E4800F0E9FB4FE07B681B6811
:101A70002C4A93424AD100237B61274B1B6C264A98
:101A800043F400431364244B1B6C03F400437B6159
:101A90007B6900233B61204B1B6B1F4A43F0010312
:101AA00013631D4B1B6B03F001033B613B69002378
:101AB000FB60194B1B6B184A43F004031363164B6E
:101AC0001B6B03F00403FB60FB6810237B620223A3
:101AD000BB620023FB6200233B6306237B6307F1A9
:101AE00024031946104800F0A9FB4FF4A4537B626D
:101AF0000223BB620023FB6200233B6306237B635C
:101B000007F124031946054800F098FB00BF383759
:101B1000BD4680BD00380040003802400008024049
:101B200000040240003C00400000024080B58AB042
:101B300000AF786007F1140300221A605A609A60BF
:101B4000DA601A617B681B68194A93422BD1002323
:101B50003B61184B5B6C174A43F480535364154B3D
:101B60005B6C03F480533B613B690023FB60114BCA
:101B70001B6B104A43F0010313630E4B1B6B03F006
:101B80000103FB60FB68E0237B610223BB61002350
:101B9000FB6103233B6205237B6207F114031946B3
:101BA000054800F04BFB00BF2837BD4680BD00BF95
:101BB00000300140003802400000024080B485B08F
:101BC00000AF78607B681B680B4A93420DD10023FD
:101BD000FB600A4B1B6C094A43F004031364074B78
:101BE0001B6C03F00403FB60FB6800BF1437BD46A9
:101BF0005DF8047B704700BF0008004000380240D9
:101C000080B588B000AF786007F10C0300221A603D
:101C10005A609A60DA601A617B681B68124A9342C4
:101C20001ED10023BB60114B1B6B104A43F008030D
:101C300013630E4B1B6B03F00803BB60BB684FF4D0
:101C40003043FB6002233B6100237B610023BB61C7
:101C50000223FB6107F10C031946054800F0EEFA78
:101C600000BF2037BD4680BD00080040003802405C
:101C7000000C024080B400AF00BFFDE780B400AFAD
:101C800000BFFDE780B400AF00BFFDE780B400AF48
:101C900000BFFDE780B400AF00BFFDE780B400AF38
:101CA00000BFBD465DF8047B704780B400AF00BF45
:101CB000BD465DF8047B704780B400AF00BFBD46F1
:101CC0005DF8047B704780B500AF00F061F900BF9C
:101CD00080BD000080B500AF024802F06FFA00BF7F
:101CE00080BD00BF6419002080B400AF01231846F6
:101CF000BD465DF8047B704780B582B000AF786068
:101D000039600AF0D7FB034616221A604FF0FF3302
:101D100018460837BD4680BD80B582B000AF7860F8
:101D20004FF0FF317868FFF7E7FF00BFFDE780B5B0
:101D300086B000AFF860B9607A6000237B610AE08A
:101D4000AFF300800146BB685A1CBA60CAB21A7071
:101D50007B6901337B617A697B689A42F0DB7B683F
:101D600018461837BD4680BD80B586B000AFF86014
:101D7000B9607A6000237B6109E0BB685A1CBA60D5
:101D80001B781846AFF300807B6901337B617A6969
:101D90007B689A42F1DB7B6818461837BD4680BDE8
:101DA00080B483B000AF78604FF0FF3318460C3733
:101DB000BD465DF8047B704780B483B000AF7860A7
:101DC00039603B684FF400525A60002318460C37C4
:101DD000BD465DF8047B704780B483B000AF786087
:101DE000012318460C37BD465DF8047B704780B46C
:101DF00085B000AFF860B9607A60002318461437E8
:101E0000BD465DF8047B704780B586B000AF786052
:101E1000144A154BD31A7B617B693B61134B1B68DA
:101E2000002B02D1114B124A1A60104B1A687B68C2
:101E300013443A699A4207D20AF03CFB03460C224B
:101E40001A604FF0FF3309E0084B1B68FB60074B3B
:101E50001A687B681344054A1360FB6818461837F4
:101E6000BD4680BD00000220000400006404002084
:101E7000B821002080B400AF064BD3F88830054A63
:101E800043F47003C2F8883000BFBD465DF8047BA0
:101E9000704700BF00ED00E0DFF834D0FFF7EAFF45
:101EA0000C480D490D4A002302E0D458C4500433B5
:101EB000C4188C42F9D30A4A0A4C002301E013608B
:101EC0000432A242FBD30AF0FBFAFFF75BF970473A
:101ED0000000022000000020C402002068E6000884
:101EE000C4020020B4210020FEE7000080B500AF4E
:101EF0000E4B1B680D4A43F4007313600B4B1B68B9
:101F00000A4A43F480631360084B1B68074A43F492
:101F100080731360032000F04FF9002000F008F8F0
:101F2000FFF7C6FC0023184680BD00BF003C0240FE
:101F300080B582B000AF7860124B1A68124B1B78E4
:101F400019464FF47A73B3FBF1F3B2FBF3F318467F
:101F500000F067F90346002B01D001230EE07B68F7
:101F60000F2B0AD8002279684FF0FF3000F02FF9CC
:101F7000064A7B681360002300E0012318460837F7
:101F8000BD4680BD000000200800002004000020A5
:101F900080B400AF064B1B781A46064B1B681344EF
:101FA000044A136000BFBD465DF8047B704700BF64
:101FB000080000206804002080B400AF034B1B68B9
:101FC0001846BD465DF8047B704700BF68040020DA
:101FD00080B584B000AF7860FFF7EEFFB8607B6833
:101FE000FB60FB68B3F1FF3F05D00A4B1B781A4634
:101FF000FB681344FB6000BFFFF7DEFF0246BB68CF
:10200000D31AFA689A42F7D800BF00BF1037BD460E
:1020100080BD00BF0800002080B485B000AF7860AC
:102020007B6803F00703FB600C4BDB68BB60BA689E
:102030004FF6FF031340BB60FB681A02BB681343F3
:1020400043F0BF6343F40033BB60044ABB68D36012
:1020500000BF1437BD465DF8047B704700ED00E01B
:1020600080B400AF044BDB681B0A03F0070318467B
:10207000BD465DF8047B704700ED00E080B483B09E
:1020800000AF0346FB7197F90730002B0BDBFB79A0
:1020900003F01F02074997F907305B09012000FA96
:1020A00002F241F8232000BF0C37BD465DF8047BE7
:1020B000704700BF00E100E080B483B000AF03468A
:1020C0003960FB7197F90730002B0ADB3B68DAB205
:1020D0000C4997F907301201D2B20B4483F8002360
:1020E0000AE03B68DAB20849FB7903F00F03043BCE
:1020F0001201D2B20B441A7600BF0C37BD465DF810
:10210000047B704700E100E000ED00E080B489B09E
:1021100000AFF860B9607A60FB6803F00703FB6109
:10212000FB69C3F10703042B28BF0423BB61FB69D0
:102130000433062B02D9FB69033B00E000237B61DB
:102140004FF0FF32BB6902FA03F3DA43BB681A406F
:102150007B699A404FF0FF317B6901FA03F3D94361
:102160007B680B40134318462437BD465DF8047B5B
:102170007047000080B582B000AF78607B68013B9B
:10218000B3F1807F01D301230FE00A4A7B68013B52
:1021900053600F214FF0FF30FFF78EFF054B0022F9
:1021A0009A60044B07221A60002318460837BD4680
:1021B00080BD00BF10E000E080B582B000AF786065
:1021C0007868FFF729FF00BF0837BD4680BD80B59E
:1021D00086B000AF0346B9607A60FB7300237B6171
:1021E000FFF73EFF78617A68B9687869FFF78EFF7C
:1021F000024697F90F3011461846FFF75DFF00BF02
:102200001837BD4680BD80B582B000AF0346FB7174
:1022100097F907301846FFF731FF00BF0837BD4672
:1022200080BD80B582B000AF78607868FFF7A2FF0C
:10223000034618460837BD4680BD000080B489B00B
:1022400000AF7860396000237B6100233B6100238D
:10225000BB610023FB6159E10122FB6902FA03F330
:102260007B613B681B687A6913403B613A697B6913
:102270009A4240F048813B685B6803F00303012BFE
:1022800005D03B685B6803F00303022B30D17B6809
:102290009B68BB61FB695B00032202FA03F3DB432B
:1022A000BA691340BB613B68DA68FB695B0002FAFC
:1022B00003F3BA691343BB617B68BA699A607B68B0
:1022C0005B68BB610122FB6902FA03F3DB43BA6975
:1022D0001340BB613B685B681B0903F00102FB69AB
:1022E00002FA03F3BA691343BB617B68BA695A60A7
:1022F0003B685B6803F00303032B17D07B68DB6844
:10230000BB61FB695B00032202FA03F3DB43BA699A
:102310001340BB613B689A68FB695B0002FA03F3F8
:10232000BA691343BB617B68BA69DA603B685B6872
:1023300003F00303022B23D1FB69DA087B68083220
:1023400053F82230BB61FB6903F007039B000F22A7
:1023500002FA03F3DB43BA691340BB613B681A69B5
:10236000FB6903F007039B0002FA03F3BA69134306
:10237000BB61FB69DA087B680832B96943F822104F
:102380007B681B68BB61FB695B00032202FA03F3F5
:10239000DB43BA691340BB613B685B6803F003022F
:1023A000FB695B0002FA03F3BA691343BB617B6804
:1023B000BA691A603B685B6803F44033002B00F095
:1023C000A2800023FB60574B5B6C564A43F480436A
:1023D0005364544B5B6C03F48043FB60FB68524ACC
:1023E000FB699B08023352F82330BB61FB6903F0A1
:1023F00003039B000F2202FA03F3DB43BA69134085
:10240000BB617B68494A934219D07B68484A934232
:1024100013D07B68474A93420DD07B68464A93426B
:1024200007D07B68454A934201D1042308E0072383
:1024300006E0032304E0022302E0012300E000237E
:10244000FA6902F0030292009340BA691343BB6138
:102450003549FB699B080233BA6941F82320384BA0
:102460009B68BB613B69DB43BA691340BB613B6856
:102470005B6803F48013002B03D0BA693B691343F4
:10248000BB612F4ABB6993602D4BDB68BB613B6925
:10249000DB43BA691340BB613B685B6803F400131C
:1024A000002B03D0BA693B691343BB61244ABB6963
:1024B000D360234B5B68BB613B69DB43BA69134064
:1024C000BB613B685B6803F40033002B03D0BA693F
:1024D0003B691343BB611A4ABB695360184B1B68C5
:1024E000BB613B69DB43BA691340BB613B685B6816
:1024F00003F48033002B03D0BA693B691343BB61FB
:102500000F4ABB691360FB690133FB61FB690F2B49
:102510007FF6A2AE00BF00BF2437BD465DF8047B46
:10252000704700BF00380240003801400000024000
:102530000004024000080240000C0240001002406B
:10254000003C014080B483B000AF78600B467B80D4
:1025500013467B707B78002B03D07A887B689A6166
:1025600003E07B881A047B689A6100BF0C37BD4684
:102570005DF8047B704780B485B000AF78600B468F
:102580007B807B685B69FB607A88FB6813401A0478
:10259000FB68D9437B880B401A437B689A6100BF74
:1025A0001437BD465DF8047B7047000080B584B0E9
:1025B00000AF78607B68002B01D101232BE17B68A1
:1025C00093F83D30DBB2002B06D17B68002283F804
:1025D0003C207868FFF794F97B68242283F83D203B
:1025E0007B681B681A687B681B6822F001021A600E
:1025F0007B681B681A687B681B6842F400421A609B
:102600007B681B681A687B681B6822F400421A60AA
:1026100003F052FBF8607B685B68814A934207D8FD
:10262000FB68804A934294BF01230023DBB206E09B
:10263000FB687D4A934294BF01230023DBB2002B49
:1026400001D00123E7E0FB68784AA2FB03239B0C3F
:10265000BB607B681B685B6823F03F017B681B687D
:10266000BA680A435A607B681B681B6A23F03F0103
:102670007B685B686A4A934202D8BB68013309E011
:10268000BB684FF4967202FB03F3694AA2FB032373
:102690009B0901337A6812680B4313627B681B68DD
:1026A000DB6923F44F4222F0FF027B685B685C49E0
:1026B0008B4219D8FB68591E7B685B685B00B1FBD5
:1026C000F3F3591C40F6FC730B40002B0AD0FB6857
:1026D000591E7B685B685B00B1FBF3F30133C3F306
:1026E0000B0351E004234FE07B689B68002B11D162
:1026F000FB68581E7B6859680B465B000B44B0FBB7
:10270000F3F30133C3F30B03002B0CBF01230023AE
:10271000DBB212E0FB68581E7B6859680B469B00D1
:102720000B4499000B44B0FBF3F30133C3F30B03E9
:10273000002B0CBF01230023DBB2002B01D00123AF
:1027400022E07B689B68002B0ED1FB68581E7B68DB
:1027500059680B465B000B44B0FBF3F30133C3F342
:102760000B0343F400430FE0FB68581E7B68596875
:102770000B469B000B4499000B44B0FBF3F3013371
:10278000C3F30B0343F44043796809681343CB61F7
:102790007B681B681B6823F0C0017B68DA697B6873
:1027A0001B6A1A437B681B680A431A607B681B68B4
:1027B0009B6823F4034323F0FF037A6811697A6866
:1027C000D26811437A6812680B4393607B681B6878
:1027D000DB6823F0FF017B685A697B689B691A43B9
:1027E0007B681B680A43DA607B681B681A687B6831
:1027F0001B6842F001021A607B6800221A647B6841
:10280000202283F83D207B6800221A637B68002227
:1028100083F83E20002318461037BD4680BD00BF18
:10282000A08601007F841E00FF083D0083DE1B435D
:10283000D34D621080B588B002AFF86008461146EB
:102840001A4603467B810B463B811346FB80FFF70C
:10285000B3FB7861FB6893F83D30DBB2202B40F08E
:10286000D9807B690093192301226D49F86800F033
:102870008BFC0346002B01D00223CCE0FB6893F8CD
:102880003C30012B01D10223C5E0FB68012283F813
:102890003C20FB681B681B6803F00103012B07D079
:1028A000FB681B681A68FB681B6842F001021A602B
:1028B000FB681B681A68FB681B6822F400621A60D8
:1028C000FB68212283F83D20FB68402283F83E20EC
:1028D000FB6800221A64FB683A6A5A62FB68BA8C89
:1028E0005A85FB685B8D9AB2FB681A85FB684D4A76
:1028F000DA62F8883A8979897B690193BB6A009327
:102900000346F86800F0C2FA0346002B52D00123B8
:1029100081E07A69B96AF86800F050FD0346002B3F
:102920000DD0FB681B6C042B07D1FB681B681A6871
:10293000FB681B6842F400721A6001236BE0FB68BD
:102940005B6A1A78FB681B681A61FB685B6A5A1C31
:10295000FB685A62FB681B8D013B9AB2FB681A85C3
:10296000FB685B8D9BB2013B9AB2FB685A85FB68A2
:102970001B685B6903F00403042B1BD1FB681B8DF0
:10298000002B17D0FB685B6A1A78FB681B681A611A
:10299000FB685B6A5A1CFB685A62FB681B8D013B33
:1029A0009AB2FB681A85FB685B8D9BB2013B9AB2B9
:1029B000FB685A85FB681B8D002BAAD17A69B96A1E
:1029C000F86800F043FD0346002B0DD0FB681B6C3C
:1029D000042B07D1FB681B681A68FB681B6842F46C
:1029E00000721A60012316E0FB681B681A68FB6816
:1029F0001B6842F400721A60FB68202283F83D20B5
:102A0000FB68002283F83E20FB68002283F83C200C
:102A1000002300E0022318461837BD4680BD00BFE2
:102A2000020010000000FFFF80B58CB002AFF8601C
:102A3000084611461A4603467B810B463B811346E6
:102A4000FB80FFF7B9FA7862FB6893F83D30DBB2A0
:102A5000202B40F014827B6A0093192301227B49CA
:102A6000F86800F091FB0346002B01D0022307E237
:102A7000FB6893F83C30012B01D1022300E2FB6894
:102A8000012283F83C20FB681B681B6803F00103EC
:102A9000012B07D0FB681B681A68FB681B6842F0B3
:102AA00001021A60FB681B681A68FB681B6822F445
:102AB00000621A60FB68222283F83D20FB684022F6
:102AC00083F83E20FB6800221A64FB683A6B5A6266
:102AD000FB68BA8E5A85FB685B8D9AB2FB681A85D3
:102AE000FB685B4ADA62F8883A8979897B6A0193E4
:102AF000BB6B00930346F86800F05EFA0346002BB8
:102B000001D00123BCE1FB681B8D002B13D10023F6
:102B10003B62FB681B685B693B62FB681B689B69E7
:102B20003B623B6AFB681B681A68FB681B6842F4DF
:102B300000721A6090E1FB681B8D012B1BD1FB68B2
:102B40001B681A68FB681B6822F480621A60002305
:102B5000FB61FB681B685B69FB61FB681B689B6929
:102B6000FB61FB69FB681B681A68FB681B6842F421
:102B700000721A6070E1FB681B8D022B1BD1FB6891
:102B80001B681A68FB681B6822F480621A60FB6885
:102B90001B681A68FB681B6842F400621A60002315
:102BA000BB61FB681B685B69BB61FB681B689B6959
:102BB000BB61BB6950E100237B61FB681B685B69FB
:102BC0007B61FB681B689B697B617B6944E1FB68F7
:102BD0001B8D032B00F2F180FB681B8D012B23D191
:102BE0007A6AB96BF86800F079FC0346002B01D0D3
:102BF000012345E1FB681B681A69FB685B6AD2B276
:102C00001A70FB685B6A5A1CFB685A62FB681B8D72
:102C1000013B9AB2FB681A85FB685B8D9BB2013B56
:102C20009AB2FB685A8517E1FB681B8D022B4ED1C7
:102C30007B6A0093BB6B00220649F86800F0A4FA97
:102C40000346002B08D001231AE100BF0200100048
:102C50000000FFFF04000100FB681B681A68FB68A6
:102C60001B6842F400721A60FB681B681A69FB68F3
:102C70005B6AD2B21A70FB685B6A5A1CFB685A62C4
:102C8000FB681B8D013B9AB2FB681A85FB685B8D64
:102C90009BB2013B9AB2FB685A85FB681B681A69B4
:102CA000FB685B6AD2B21A70FB685B6A5A1CFB68ED
:102CB0005A62FB681B8D013B9AB2FB681A85FB6860
:102CC0005B8D9BB2013B9AB2FB685A85C4E07B6A7C
:102CD0000093BB6B00226C49F86800F055FA03467C
:102CE000002B01D00123CBE0FB681B681A68FB684E
:102CF0001B6822F480621A60FB681B681A69FB6813
:102D00005B6AD2B21A70FB685B6A5A1CFB685A6233
:102D1000FB681B8D013B9AB2FB681A85FB685B8DD3
:102D20009BB2013B9AB2FB685A857B6A0093BB6BEE
:102D300000225549F86800F027FA0346002B01D01D
:102D400001239DE0FB681B681A68FB681B6842F45E
:102D500000721A60FB681B681A69FB685B6AD2B272
:102D60001A70FB685B6A5A1CFB685A62FB681B8D11
:102D7000013B9AB2FB681A85FB685B8D9BB2013BF5
:102D80009AB2FB685A85FB681B681A69FB685B6A24
:102D9000D2B21A70FB685B6A5A1CFB685A62FB6805
:102DA0001B8D013B9AB2FB681A85FB685B8D9BB259
:102DB000013B9AB2FB685A854EE07A6AB96BF868B3
:102DC00000F08CFB0346002B01D0012358E0FB6888
:102DD0001B681A69FB685B6AD2B21A70FB685B6A8F
:102DE0005A1CFB685A62FB681B8D013B9AB2FB6858
:102DF0001A85FB685B8D9BB2013B9AB2FB685A85D2
:102E0000FB681B685B6903F00403042B24D1FB6897
:102E10001B8D032B07D1FB681B681A68FB681B68B6
:102E200022F480621A60FB681B681A69FB685B6A9F
:102E3000D2B21A70FB685B6A5A1CFB685A62FB6864
:102E40001B8D013B9AB2FB681A85FB685B8D9BB2B8
:102E5000013B9AB2FB685A85FB681B8D002B7FF4FF
:102E6000B6AEFB68202283F83D20FB68002283F881
:102E70003E20FB68002283F83C20002300E0022370
:102E800018462837BD4680BD0400010080B588B0D3
:102E900002AFF860084611461A4603467B810B468E
:102EA0003B811346FB80FB681B681A68FB681B6844
:102EB00042F480721A607B6A00933B6A00224FF0F2
:102EC0000111F86800F060F90346002B0DD0FB6893
:102ED0001B681B6803F48073B3F5807F03D1FB6824
:102EE0004FF400721A6403235FE07B89DBB21A4659
:102EF000FB681B6802F0FE021A617B6A3A6A2D4980
:102F0000F86800F0BBF90346002B01D001234CE028
:102F100000237B61FB681B685B697B61FB681B6846
:102F20009B697B617B697A6A396AF86800F046FAC6
:102F30000346002B0DD0FB681B6C042B07D1FB68EC
:102F40001B681A68FB681B6842F400721A60012350
:102F50002BE0FB88012B05D13B89DAB2FB681B68AB
:102F60001A6121E03B891B0A9BB2DAB2FB681B683D
:102F70001A617A6A396AF86800F020FA0346002B71
:102F80000DD0FB681B6C042B07D1FB681B681A680B
:102F9000FB681B6842F400721A60012305E03B895C
:102FA000DAB2FB681B681A61002318461837BD4661
:102FB00080BD00BF0200010080B588B002AFF8609C
:102FC000084611461A4603467B810B463B81134651
:102FD000FB80FB681B681A68FB681B6842F4806210
:102FE0001A60FB681B681A68FB681B6842F48072F1
:102FF0001A607B6A00933B6A00224FF00111F86867
:1030000000F0C2F80346002B0DD0FB681B681B685C
:1030100003F48073B3F5807F03D1FB684FF4007233
:103020001A640323AAE07B89DBB21A46FB681B689B
:1030300002F0FE021A617B6A3A6A5249F86800F0AF
:103040001DF90346002B01D0012397E000237B618B
:10305000FB681B685B697B61FB681B689B697B6124
:103060007B697A6A396AF86800F0A8F90346002B90
:103070000DD0FB681B6C042B07D1FB681B681A681A
:10308000FB681B6842F400721A60012376E0FB883B
:10309000012B05D13B89DAB2FB681B681A6121E07C
:1030A0003B891B0A9BB2DAB2FB681B681A617A6A19
:1030B000396AF86800F082F90346002B0DD0FB68EE
:1030C0001B6C042B07D1FB681B681A68FB681B6824
:1030D00042F400721A60012350E03B89DAB2FB68C7
:1030E0001B681A617A6A396AF86800F067F9034662
:1030F000002B0DD0FB681B6C042B07D1FB681B68F1
:103100001A68FB681B6842F400721A60012335E0FC
:10311000FB681B681A68FB681B6842F480721A60BF
:103120007B6A00933B6A00224FF00111F86800F0BF
:103130002BF80346002B0DD0FB681B681B6803F4BB
:103140008073B3F5807F03D1FB684FF400721A647B
:10315000032313E07B89DBB243F00103DAB2FB689F
:103160001B681A617B6A3A6A0649F86800F086F8BB
:103170000346002B01D0012300E000231846183736
:10318000BD4680BD0200010080B584B000AFF8608C
:10319000B9603B601346FB7148E03B68B3F1FF3F09
:1031A00044D0FEF709FF0246BB69D31A3A689A4237
:1031B00002D33B68002B39D1BB681B0CDBB2012B5F
:1031C0000DD1FB681B685B69DA43BB6813409BB297
:1031D000002B0CBF01230023DBB21A460CE0FB6876
:1031E0001B689B69DA43BB6813409BB2002B0CBF82
:1031F00001230023DBB21A46FB799A4216D1FB6801
:1032000000221A63FB68202283F83D20FB6800221D
:1032100083F83E20FB681B6C43F02002FB681A64B5
:10322000FB68002283F83C20012323E0BB681B0CD1
:10323000DBB2012B0DD1FB681B685B69DA43BB680D
:1032400013409BB2002B0CBF01230023DBB21A46B4
:103250000CE0FB681B689B69DA43BB6813409BB2B8
:10326000002B0CBF01230023DBB21A46FB799A42E4
:1032700093D0002318461037BD4680BD80B584B07A
:1032800000AFF860B9607A603B6071E0FB681B6872
:103290005B6903F48063B3F5806F23D1FB681B681F
:1032A0001A68FB681B6842F400721A60FB681B68AE
:1032B0006FF480625A61FB6800221A63FB68202267
:1032C00083F83D20FB68002283F83E20FB681B6CDE
:1032D00043F00402FB681A64FB68002283F83C2078
:1032E000012367E07B68B3F1FF3F41D0FEF764FE46
:1032F00002463B68D31A7A689A4202D37B68002B55
:1033000036D1BB681B0CDBB2012B0CD1FB681B68F0
:103310005B69DA43BB6813409BB2002B14BF0123E7
:103320000023DBB20BE0FB681B689B69DA43BB68D8
:1033300013409BB2002B14BF01230023DBB2002BF0
:1033400016D0FB6800221A63FB68202283F83D2018
:10335000FB68002283F83E20FB681B6C43F02002D0
:10336000FB681A64FB68002283F83C20012321E0FB
:10337000BB681B0CDBB2012B0CD1FB681B685B69C3
:10338000DA43BB6813409BB2002B14BF0123002318
:10339000DBB20BE0FB681B689B69DA43BB68134038
:1033A0009BB2002B14BF01230023DBB2002B7FF460
:1033B0006DAF002318461037BD4680BD80B584B080
:1033C00000AFF860B9607A6034E0F86800F0E3F8C4
:1033D0000346002B01D0012334E0BB68B3F1FF3F6B
:1033E00028D0FEF7E9FD02467B68D31ABA689A42F4
:1033F00002D3BB68002B1DD1FB681B685B6903F01F
:103400008003802B16D0FB6800221A63FB68202201
:1034100083F83D20FB68002283F83E20FB681B6C8C
:1034200043F02002FB681A64FB68002283F83C200A
:10343000012307E0FB681B685B6903F08003802BB6
:10344000C3D1002318461037BD4680BD80B584B077
:1034500000AFF860B9607A6034E0F86800F09BF87B
:103460000346002B01D0012334E0BB68B3F1FF3FDA
:1034700028D0FEF7A1FD02467B68D31ABA689A42AB
:1034800002D3BB68002B1DD1FB681B685B6903F08E
:103490000403042B16D0FB6800221A63FB68202269
:1034A00083F83D20FB68002283F83E20FB681B6CFC
:1034B00043F02002FB681A64FB68002283F83C207A
:1034C000012307E0FB681B685B6903F00403042B1E
:1034D000C3D1002318461037BD4680BD80B584B0E7
:1034E00000AFF860B9607A6049E0FB681B685B690F
:1034F00003F01003102B19D1FB681B686FF010024A
:103500005A61FB6800221A63FB68202283F83D2081
:10351000FB68002283F83E20FB681A6CFB681A6483
:10352000FB68002283F83C20012330E0FEF744FDD5
:1035300002467B68D31ABA689A4202D3BB68002B52
:103540001DD1FB681B685B6903F04003402B16D05C
:10355000FB6800221A63FB68202283F83D20FB6889
:10356000002283F83E20FB681B6C43F02002FB68BE
:103570001A64FB68002283F83C20012307E0FB6803
:103580001B685B6903F04003402BAED10023184653
:103590001037BD4680BD80B483B000AF78607B68D3
:1035A0001B685B6903F48063B3F5806F1BD17B6894
:1035B0001B686FF480625A617B6800221A637B6823
:1035C000202283F83D207B68002283F83E207B6820
:1035D0001B6C43F004027B681A647B68002283F84A
:1035E0003C20012300E0002318460C37BD465DF85F
:1035F000047B704780B588B000AF78607B68002B93
:1036000001D1012328E17B6893F84130DBB2002B24
:1036100009D17B68002283F840207B68904A5A6376
:103620007868FEF7B5F97B68022283F841207B6851
:103630001B68DB697A68126823F47B6323F00F034D
:10364000D3617B681B6802221A627B685B69022B6C
:1036500060D07B68DB68002B02D110237B6101E026
:1036600020237B617B689B68202B02D87B695B00F1
:103670007B61012002F024FCF8607B681B69B3F5D4
:10368000007F25D17B68DB68002B10D07B699B0015
:10369000FA68B2FBF3F213469B0013445B001A4630
:1036A0007B685B69B2FBF3F305333B611FE07B6929
:1036B000DB00FA68B2FBF3F213469B0013445B0095
:1036C0001A467B685B69B2FBF3F305333B610EE09E
:1036D000FA687B69B2FBF3F213469B0013445B006C
:1036E0001A467B685B69B2FBF3F305333B613B69C8
:1036F0005C4AA2FB0323DB083B613B6903F0010347
:10370000BB613A69BB69D31A5B08FB61BB691B02E9
:10371000BB6103E00223FB610023BB61FB69012B5A
:1037200002D9FB69FF2B07D97B685B6C43F0100261
:103730007B685A6401238FE07B681A69BB6942EA9F
:1037400003017B681B68FA690A431A627B681B687D
:10375000DB6923F47B6323F00F037A6851687A688E
:10376000926811437A68D26811437A6892690A4371
:103770001A437B681B6842F40062DA617B681B6A4B
:10378000012B61D17B68384A5A637B681B68374AD2
:10379000934201D1364B01E04FF04023DB697A6858
:1037A000126832498A4201D1314A01E04FF0402289
:1037B00023F47B6323F00F03D3617B681B682B4AE0
:1037C000934201D12A4B01E04FF0402302221A62BA
:1037D0007B681B68254A934201D1254B01E04FF0DD
:1037E0004023DB697B817B685B68B3F5007F03D096
:1037F0007B685B68002B03D14FF480733B6101E071
:1038000000233B613B699AB27B689B689BB2134380
:103810009AB27B68DB689BB213439AB27B689B6960
:103820009BB213439AB27B8913439BB243F4006368
:103830007B817B681B680D4A934201D10C4B01E0F0
:103840004FF040237A89DA617B6800225A647B68F2
:10385000012283F84120002318462037BD4680BD51
:103860006B390008CDCCCCCC813A00080038004040
:103870000034004080B483B000AF786000BF0C37E4
:10388000BD465DF8047B704780B483B000AF7860BC
:1038900000BF0C37BD465DF8047B704780B483B031
:1038A00000AF786000BF0C37BD465DF8047B704701
:1038B00080B582B000AF78607B685B6A1A887B68ED
:1038C0001B68DA607B685B6A9A1C7B685A627B685B
:1038D0005B8D9BB2013B9AB27B685A857B685B8D9E
:1038E0009BB2002B0ED17B681B685A687B681B68F3
:1038F00022F0A0025A607B68012283F84120786898
:10390000FFF7B8FF00BF0837BD4680BD80B582B065
:1039100000AF78607B681B68DA687B68DB6A92B20C
:103920001A807B68DB6A9A1C7B68DA627B685B8E34
:103930009BB2013B9AB27B685A867B685B8E9BB2D6
:10394000002B0ED17B681B685A687B681B6822F0CD
:1039500060025A607B68012283F841207868FFF793
:1039600093FF00BF0837BD4680BD80B586B000AF6D
:1039700078607B681B689B687B617B6893F841304B
:10398000DBB2042B3AD17B6903F00103012B09D18F
:103990007B681B685B6803F04003402B02D17868AA
:1039A000FFF7B4FF7B6903F04003402B26D17B680F
:1039B0001B685B6803F02003202B1FD17B681B680A
:1039C0005A687B681B6822F060025A6000233B61E2
:1039D0007B681B68DB683B617B681B689B683B619D
:1039E0003B697B68012283F841207B685B6C43F074
:1039F00002027B685A647868FFF750FF7B6893F88F
:103A00004130DBB2032B36D17B6903F00203022B7A
:103A100009D17B681B685B6803F08003802B02D1AF
:103A20007868FFF745FF7B6903F00803082B22D174
:103A30007B681B685B6803F02003202B1BD17B682D
:103A40001B685A687B681B6822F0A0025A6000233A
:103A5000FB607B681B689B68FB60FB687B680122DE
:103A600083F841207B685B6C43F004027B685A64F6
:103A70007868FFF713FF00BF1837BD4680BD000010
:103A800080B588B000AF78607B681B689B68FB617D
:103A90007B681B68924A934201D1924B01E04FF040
:103AA00040239B68BB617B681B685B687B617B68AC
:103AB0001B688B4A934201D18A4B01E04FF04023AF
:103AC0005B683B617B685B68B3F5007F04D07B6813
:103AD0005B68002B40F09980FB6903F00203022B26
:103AE00007D17B6903F08003002B02D0786800F0D7
:103AF00025F9BB6903F00103012B07D13B6903F0F2
:103B00004003002B02D0786800F0C8F9BB6903F0CD
:103B10004003402B3AD13B6903F02003002B35D002
:103B20007B681B686E4A934201D16E4B01E04FF0F7
:103B300040235A687B681B6869498B4201D1694BF5
:103B400001E04FF0402322F060025A607B681B685E
:103B50005A687B681B6822F0A0025A600023FB6051
:103B60007B681B68DB68FB607B681B689B68FB608D
:103B7000FB687B68012283F841207B685B6C43F023
:103B800002027B685A647868FFF788FEFB6903F0DD
:103B90000803082B40F0C3807B6903F02003002B4F
:103BA00000F0BD807B681B685A687B681B6822F048
:103BB000A0025A607B681B68494A934201D1494B75
:103BC00001E04FF040235A687B681B6844498B42F0
:103BD00001D1444B01E04FF0402322F060025A60D3
:103BE0000023BB607B681B689B68BB60BB687B680D
:103BF000012283F841207B685B6C43F004027B6800
:103C00005A647868FFF74AFE89E0BB6903F0020353
:103C1000022B07D13B6903F08003002B02D07868A8
:103C200000F0BEF8FB6903F00103012B07D17B69AB
:103C300003F04003002B02D0786800F0FDF8FB6928
:103C400003F04003402B2FD17B6903F02003002BAE
:103C50002AD07B681B685A687B681B6822F0600268
:103C60005A607B681B681E4A934201D11D4B01E0DC
:103C70004FF040235A687B681B6819498B4201D179
:103C8000184B01E04FF0402322F0A0025A607B68FD
:103C9000012283F841207B685B6C43F002027B6861
:103CA0005A647868FFF7FAFDBB6903F00803082B34
:103CB00036D13B6903F02003002B31D07B681B68B1
:103CC000074A934201D1074B01E04FF040235A6865
:103CD0007B681B6802498B4206D1024B06E000BF9D
:103CE00000380040003400404FF0402322F0A00292
:103CF0005A607B681B685A687B681B6822F0600208
:103D00005A607B68012283F841207B685B6C43F03A
:103D100004027B685A647868FFF7C0FD00E000BFCA
:103D200000BF2037BD4680BD80B483B000AF78604F
:103D300000BF0C37BD465DF8047B704780B582B08C
:103D400000AF78607B685B6A991C7A6851621A8858
:103D50007B681B68DA607B685B8D9BB2013B9AB223
:103D60007B685A857B685B8D9BB2002B13D17B6887
:103D70001B685A687B681B6822F0A0025A607B6847
:103D80005B8E9BB2002B06D17B68012283F8412019
:103D90007868FFF7C9FF00BF0837BD4680BD000047
:103DA00080B582B000AF78607B685B6A991C7A68E6
:103DB000516219887B681B681D4A934201D11D4BD3
:103DC00001E04FF040230A46DA607B685B8D9BB2CE
:103DD000013B9AB27B685A857B685B8D9BB2002B56
:103DE00021D17B681B68124A934201D1114B01E03B
:103DF0004FF040235A687B681B680D498B4201D104
:103E00000C4B01E04FF0402322F0A0025A607B6887
:103E10005B8E9BB2002B06D17B68012283F8412088
:103E20007868FFF781FF00BF0837BD4680BD00BF3F
:103E3000003800400034004080B582B000AF7860A8
:103E40007B681B68D8687B68DB6A991C7A68D162DA
:103E500082B21A807B685B8E9BB2013B9AB27B6810
:103E60005A867B685B8E9BB2002B13D17B681B68E4
:103E70005A687B681B6822F060025A607B685B8D21
:103E80009BB2002B06D17B68012283F84120786821
:103E9000FFF74AFF00BF0837BD4680BD80B582B03E
:103EA00000AF78607B681B68204A934201D1204BA9
:103EB00001E04FF04023D8687B68DB6A991C7A6880
:103EC000D16282B21A807B685B8E9BB2013B9AB250
:103ED0007B685A867B685B8E9BB2002B21D17B6806
:103EE0001B68124A934201D1114B01E04FF040236D
:103EF0005A687B681B680D498B4201D10C4B01E06D
:103F00004FF0402322F060025A607B685B8D9BB2C9
:103F1000002B06D17B68012283F841207868FFF7E7
:103F200003FF00BF0837BD4680BD00BF003800401A
:103F30000034004080B586B002AF78607B68002B0B
:103F400001D1012301E17B681B68BB607B6893F8AA
:103F50009534DBB2002B06D17B68002283F89424D1
:103F6000786807F0DFF97B68032283F89524BB6843
:103F7000B3F1A04F02D17B6800229A717B681B6865
:103F8000184603F06CFD7B6818687B681A7C8DF816
:103F9000002004330ECB03F04BFC0346002B05D06E
:103FA0007B68022283F895240123CEE07B681B689E
:103FB0000021184603F064FD0346002B05D07B6802
:103FC000022283F895240123BFE00023FB734AE01B
:103FD000FA7B79681346DB0013449B000B441533CE
:103FE00001221A70FA7B79681346DB0013449B00A8
:103FF0000B441433FA7B1A70FA7BFB7B98B2796816
:104000001346DB0013449B000B442E3302461A80F8
:10401000FA7B79681346DB0013449B000B4418338A
:1040200000221A70FA7B79681346DB0013449B0068
:104030000B441C3300221A60FA7B79681346DB00BC
:1040400013449B000B44203300221A60FA7B7968EA
:104050001346DB0013449B000B44243300221A60F8
:10406000FB7B0133FB737B681B79FA7B9A42AFD3EE
:104070000023FB7344E0FA7B79681346DB001344AA
:104080009B000B4403F2552300221A70FA7B7968D7
:104090001346DB0013449B000B4403F51573FA7BB6
:1040A0001A70FA7B79681346DB0013449B000B44BB
:1040B00003F5167300221A70FA7B79681346DB0049
:1040C00013449B000B4403F5177300221A60FA7B1C
:1040D00079681346DB0013449B000B4403F5187307
:1040E00000221A60FA7B79681346DB0013449B00B8
:1040F0000B4403F5197300221A60FB7B0133FB7339
:104100007B681B79FA7B9A42B5D37B6818687B6819
:104110001A7C8DF8002004330ECB03F0FDFC03461F
:10412000002B05D07B68022283F8952401230CE044
:104130007B6800225A747B68012283F895247B688F
:104140001B68184604F047FD002318461037BD468B
:1041500080BD80B584B000AF78607B681B68FB6071
:104160007B6893F89434012B01D1022322E07B6811
:10417000012283F89424FB68DB6803F04003002BE2
:1041800009D07B685B7B012B05D1FB689B6B43F4FB
:104190008032FB689A637B681B68184603F04EFC0C
:1041A0007B681B68184604F0F5FC7B68002283F8E6
:1041B0009424002318461037BD4680BD90B58DB0BD
:1041C00000AF78607B681B683B623B6AFB617B6881
:1041D0001B68184604F0B3FD0346002B40F08C84A6
:1041E0007B681B68184604F017FD0346002B00F09F
:1041F0008284FB6903F500639B681B0AC3F30D020D
:104200007B68C3F8D4247B681B68184604F004FD5F
:10421000034603F00203022B07D17B681B685A692F
:104220007B681B6802F002025A617B681B681846B3
:1042300004F0F2FC034603F01003102B61D17B68FD
:104240001B689A697B681B6822F010029A613B6ABE
:104250001B6ABB61BB6903F00F021346DB0013440A
:104260009B0003F514737A68134404337B61BB69C4
:104270005B0C03F00F03022B24D1BA6947F6F073ED
:104280001340002B35D07B69D968BB691B099BB2F1
:10429000C3F30A039BB21A46386A04F029FB7B6910
:1042A000DA68BB691B09C3F30A031A447B69DA6045
:1042B0007B695A69BB691B09C3F30A031A447B690A
:1042C0005A6116E0BB695B0C03F00F03062B10D19B
:1042D0007B6803F29C4308221946386A04F008FB05
:1042E0007B695A69BB691B09C3F30A031A447B69DA
:1042F0005A617B681B689A697B681B6842F01002F0
:104300009A617B681B68184604F086FC034603F438
:104310000023B3F5002F40F0A78000237B627B6869
:104320001B68184604F08BFCB86299E0BB6A03F086
:104330000103002B00F08E807B681B687A6AD2B282
:104340001146184604F0AFFC38613B6903F00103E5
:10435000002B0CD07B6A5A01FB69134403F53063D0
:104360001A4601239360796A786800F0A3FE3B69DE
:1043700003F00803002B0CD07B6A5A01FB6913443D
:1043800003F530631A4608239360796A786800F071
:1043900079FF3B6903F01003002B08D07B6A5A01B8
:1043A000FB69134403F530631A46102393603B699D
:1043B00003F00203002B30D03B6A5B6903F08003FB
:1043C000802B09D1FB6903F500635B68FA6902F58C
:1043D000006243F4806353607A6A1346DB0013443F
:1043E0009B0003F514737A68134404337B617B6983
:1043F000DB78012B08D17B690022DA707B6ADBB2A3
:104400001946786807F098F87B6A5A01FB691344EB
:1044100003F530631A46022393603B6903F02003DF
:10442000002B08D07B6A5A01FB69134403F5306303
:104430001A46202393603B6903F40053002B09D0F4
:104440007B6A5A01FB69134403F530631A464FF443
:10445000005393607B6A01337B62BB6A5B08BB627B
:10446000BB6A002B7FF462AF7B681B68184604F0C0
:10447000D3FB034603F48023B3F5802F40F0DB80A9
:104480007B681B68184604F0F4FBB86200237B626B
:10449000CDE0BB6A03F00103002B00F0C2807B6813
:1044A0001B687A6AD2B21146184604F01AFC3861C9
:1044B0003B6903F00103002B57D07B6A03F00F0325
:1044C000012202FA03F3FB60FB6903F500635A6BF8
:1044D000FB68DB43F96901F5006113404B637B6ABC
:1044E0005A01FB69134403F510631A4601239360D4
:1044F0007B689B79012B32D179687A6A1346DB009D
:1045000013449B000B442033196878687A6A134679
:10451000DB0013449B0003441C331B681944786878
:104520007A6A1346DB0013449B000344203319606E
:104530007B6A002B13D179687A6A1346DB00134437
:104540009B000B4424331B68002B08D17B68186840
:104550007B6803F29C431A46012104F021FC7B6A2C
:10456000DBB21946786806F06CFF3B6903F008037C
:10457000002B08D07B6A5A01FB69134403F51063D2
:104580001A46082393603B6903F01003002B08D000
:104590007B6A5A01FB69134403F510631A46102322
:1045A00093603B6903F04003002B08D07B6A5A01FB
:1045B000FB69134403F510631A46402393603B697B
:1045C00003F00203002B23D0796A386A03F008FC59
:1045D0007A6A1346DB0013449B0010337A68134455
:1045E00004337B617B69DB78012B08D17B69002276
:1045F000DA707B6ADBB21946786806F0AFFF7B6A37
:104600005A01FB69134403F510631A4602239360B1
:104610003B6903F08003002B03D0796A786800F0CF
:10462000BDFC7B6A01337B62BB6A5B08BB62BB6A11
:10463000002B7FF42EAF7B681B68184604F0ECFA61
:10464000034603F00043B3F1004F22D1FB6903F5A9
:1046500000635B68FA6902F5006223F001035360AE
:104660007B6893F8CC34012B08D17B68002283F857
:10467000CC240021786800F0A3FE02E0786806F000
:104680004DFF7B681B685A697B681B6802F000421B
:104690005A617B681B68184604F0BEFA034603F4AF
:1046A0000063B3F5006F12D1FB6903F500639B68EB
:1046B00003F00103012B02D1786806F009FF7B6843
:1046C0001B685A697B681B6802F400625A617B6848
:1046D0001B68184604F0A0FA034603F48053B3F5B0
:1046E000805F40F0B780FB6903F500635B68FA699F
:1046F00002F5006223F0010353607B681B68102100
:10470000184603F06DFB0023FB6246E0FB6A5A018A
:10471000FB69134403F510631A464FF67F33936029
:10472000FB6A5A01FB69134403F510631B68FA6ABC
:104730005101FA690A4402F5106223F40013136070
:10474000FB6A5A01FB69134403F530631A464FF6BE
:104750007F339360FB6A5A01FB69134403F53063AE
:104760001B68FA6A5101FA690A4402F5306223F4BF
:1047700000131360FB6A5A01FB69134403F53063AD
:104780001B68FA6A5101FA690A4402F5306243F083
:1047900000631360FB6A0133FB627B681B791A4676
:1047A000FB6A9342B2D3FB6903F50063DB69FA69E4
:1047B00002F5006243F00113D3617B68DB7B002BC1
:1047C00016D0FB6903F50063D3F88430FA6902F56B
:1047D000006243F00B03C2F88430FB6903F5006309
:1047E0005B6CFA6902F5006243F00B03536415E059
:1047F000FB6903F500635B69FA6902F5006243F443
:10480000005343F02B035361FB6903F500631B69FD
:10481000FA6902F5006243F00B031361FB6903F5CB
:1048200000631B68FA6902F5006223F4FE631360FB
:104830007B6818687B6899797B6803F29C431A4609
:1048400004F0AEFA7B681B685A697B681B6802F447
:1048500080525A617B681B68184604F0DDF90346F4
:1048600003F40053B3F5005F23D17B681B6818463F
:1048700004F073FA7B681B68184603F02AFB0346B2
:104880001A467B68DA717B681C6801F009FA0146F8
:104890007B68DB791A46204603F02EF8786806F02C
:1048A000F8FD7B681B685A697B681B6802F400523C
:1048B0005A617B681B68184604F0AEF9034603F0A2
:1048C0000803082B0AD1786806F0D5FD7B681B68C1
:1048D0005A697B681B6802F008025A617B681B6892
:1048E000184604F099F9034603F08003802B23D186
:1048F0003B6A9B6923F080023B6A9A6101237B62D9
:1049000014E079687A6A1346DB0013449B000B4479
:1049100003F257231B78012B05D17B6ADBB21946C2
:10492000786800F00AFB7B6A01337B627B681B7945
:104930001A467B6A9342E4D37B681B68184604F0EE
:104940006BF9034603F48013B3F5801F3CD10123B8
:104950007B622BE07B6A5A01FB69134403F5106309
:104960001B68BB6179687A6A1346DB0013449B00BD
:104970000B4418331B78012B15D1BB69002B12DABD
:1049800079687A6A1346DB0013449B000B441733A3
:1049900001221A707B6ADBB263F07F03DBB2194637
:1049A000786800F0CAFA7B6A01337B627B681B7906
:1049B0001A467B6A9342CDD37B681B685A697B6831
:1049C0001B6802F480125A617B681B68184604F069
:1049D00023F9034603F40013B3F5001F56D1012356
:1049E0007B6245E07B6A5A01FB69134403F530633F
:1049F0001B68BB6179687A6A1346DB0013449B002D
:104A00000B4403F516731B78012B2ED1BB69002BC9
:104A10002BDABB6903F480327B68D3F8D43403F01B
:104A200001039A4221D179687A6A1346DB00134464
:104A30009B000B4403F2572301221A703B6A9B69C7
:104A400043F080023B6A9A613B6A5B6903F0800332
:104A5000002B0AD1FB6903F500635B68FA6902F574
:104A6000006243F40073536008E07B6A01337B62A9
:104A70007B681B791A467B6A9342B3D37B681B68B9
:104A80005A697B681B6802F400125A617B681B68D4
:104A9000184604F0C1F8034603F08043B3F1804F99
:104AA0000AD1786806F06CFD7B681B685A697B68E0
:104AB0001B6802F080425A617B681B68184604F04C
:104AC000ABF8034603F00403042B15D17B681B6885
:104AD0005B68BB61BB6903F00403002B02D07868FC
:104AE00006F05CFD7B681B6859687B681B68BA69C7
:104AF0000A435A6000E000BF3437BD4690BD80B520
:104B000082B000AF78600B46FB707B6893F89434FA
:104B1000012B01D1022312E07B68012283F8942447
:104B20007B68FA785A747B681B68FA7811461846D5
:104B300004F00AF87B68002283F8942400231846C6
:104B40000837BD4680BD80B584B000AF78600846A8
:104B500011461A460346FB700B463B801346BB705A
:104B60000023FB7297F90330002B0FDAFB7803F078
:104B70000F021346DB0013449B0010337A68134482
:104B80000433FB60FB6801225A700FE0FB7803F0EE
:104B90000F021346DB0013449B0003F514737A687D
:104BA00013440433FB60FB6800225A70FB7803F067
:104BB0000F03DAB2FB681A703B88C3F30A02FB6882
:104BC0009A60FB68BA781A71FB685B78002B04D096
:104BD000FB681B781A46FB685A83BB78022B02D10C
:104BE000FB6800225A717B6893F89434012B01D141
:104BF00002230EE07B68012283F894247B681B6803
:104C0000F968184603F08AF97B68002283F8942437
:104C1000FB7A18461037BD4680BD80B584B000AF22
:104C200078600B46FB7097F90330002B0FDAFB78A6
:104C300003F00F021346DB0013449B0010337A6825
:104C400013440433FB60FB6801225A700FE0FB78C9
:104C500003F00F021346DB0013449B0003F51473AB
:104C60007A6813440433FB60FB6800225A70FB78B7
:104C700003F00F03DAB2FB681A707B6893F8943480
:104C8000012B01D102230EE07B68012283F89424DA
:104C90007B681B68F968184603F0C8F97B68002236
:104CA00083F89424002318461037BD4680BD80B594
:104CB00086B000AFF8607A603B600B46FB72FB7A0F
:104CC00003F00F021346DB0013449B0003F514733B
:104CD000FA68134404337B617B697A68DA607B6924
:104CE0003A681A617B6900225A617B6900225A7016
:104CF000FB7A03F00F03DAB27B691A70FB689B79C9
:104D0000012B02D17A687B69DA61FB681868FB685D
:104D10009B791A46796903F065FA0023184618371B
:104D2000BD4680BD80B483B000AF78600B46FB7099
:104D3000FB7803F00F0279681346DB0013449B00F5
:104D40000B4403F51A731B6818460C37BD465DF813
:104D5000047B704780B586B000AFF8607A603B6036
:104D60000B46FB72FB7A03F00F021346DB00134481
:104D70009B001033FA68134404337B617B697A68C3
:104D8000DA607B693A681A617B6900225A617B6943
:104D900001225A70FB7A03F00F03DAB27B691A70B2
:104DA000FB689B79012B02D17A687B69DA61FB6829
:104DB0001868FB689B791A46796903F013FA002397
:104DC00018461837BD4680BD80B584B000AF786006
:104DD0000B46FB70FB7803F00F037A68127993425D
:104DE00001D901234FE097F90330002B0FDAFB784C
:104DF00003F00F021346DB0013449B0010337A6864
:104E000013440433FB60FB6801225A700DE0FA780A
:104E10001346DB0013449B0003F514737A681344B4
:104E20000433FB60FB6800225A70FB6801229A7011
:104E3000FB7803F00F03DAB2FB681A707B6893F813
:104E40009434012B01D102231DE07B68012283F8F9
:104E500094247B681B68F968184603F0A1FDFB7871
:104E600003F00F03002B09D17B6818687B689979E0
:104E70007B6803F29C431A4603F092FF7B68002292
:104E800083F89424002318461037BD4680BD80B5B2
:104E900084B000AF78600B46FB70FB7803F00F0323
:104EA0007A681279934201D9012342E097F90330DD
:104EB000002B0FDAFB7803F00F021346DB001344DC
:104EC0009B0010337A6813440433FB60FB680122B3
:104ED0005A700FE0FB7803F00F021346DB00134417
:104EE0009B0003F514737A6813440433FB60FB687A
:104EF00000225A70FB6800229A70FB7803F00F03BF
:104F0000DAB2FB681A707B6893F89434012B01D1F4
:104F100002230EE07B68012283F894247B681B68DF
:104F2000F968184603F0AAFD7B68002283F89424F0
:104F3000002318461037BD4680BD80B584B000AF51
:104F400078600B46FB7097F90330002B0CDAFB7886
:104F500003F00F021346DB0013449B0010337A6802
:104F600013440433FB600CE0FB7803F00F0213469C
:104F7000DB0013449B0003F514737A681344043375
:104F8000FB607B681B68F968184603F0C9FB0346A1
:104F9000FB72FB7A18461037BD4680BD80B58AB0DB
:104FA00002AF786039607B681B687B617B693B611D
:104FB0003A681346DB0013449B0010337A681344AD
:104FC0000433FB60FB685A69FB681B699A4201D98C
:104FD00001236BE0FB681A69FB685B69D31AFB610C
:104FE000FB689B68FA699A4202D9FB689B68FB617F
:104FF000FB6903339B08BB612AE0FB681A69FB6805
:105000005B69D31AFB61FB689B68FA699A4202D913
:10501000FB689B68FB61FB6903339B08BB61FB6812
:10502000D9683B68DAB2FB6998B27B689B790093D8
:105030000346786903F01EFCFB68DA68FB691A44D2
:10504000FB68DA60FB685A69FB691A44FB685A61BD
:105050003B685A013B69134403F510639B699BB29B
:10506000BA699A4209D8FB685A69FB681B699A4277
:1050700003D2FB681B69002BBFD1FB681A69FB6870
:105080005B699A4211D83B6803F00F03012202FAD0
:1050900003F3BB603B6903F500635A6BBB68DB43FA
:1050A000396901F5006113404B630023184620372E
:1050B000BD4680BD80B588B000AF786039607B6840
:1050C0001B68FB61FB69BB61FB693C3304331B68F4
:1050D0007B613B685A01BB69134403F530639B68ED
:1050E0003B617B689B79012B7BD13B6903F0080313
:1050F000002B15D07B69614A934240F2B9803B692D
:1051000003F40043002B00F0B3803B685A01BB69F5
:10511000134403F530631A464FF400439360A7E04D
:105120003B6903F02003002B09D03B685A01BB699F
:10513000134403F530631A462023936098E03B69DB
:1051400003F02803002B40F093807B694B4A934285
:105150000FD93B6903F40043002B0AD03B685A0186
:10516000BB69134403F530631A464FF40043936060
:105170007EE03A681346DB0013449B0003F514738A
:105180007A6813440433FB60FB681A6A3B68590170
:10519000BB690B4403F530631B69C3F31203D21AD6
:1051A000FB685A613B68002B14D1FB681B69002B1C
:1051B00009D17B6818687B6803F29C431A46012179
:1051C00003F0EEFD06E0FB68DA68FB685B691A44F1
:1051D000FB68DA603B68DBB21946786806F016F9BE
:1051E00046E07B69264A934224D13B6903F400439D
:1051F000002B0AD03B685A01BB69134403F53063A6
:105200001A464FF40043936032E03B6903F02003F9
:10521000002B08D03B685A01BB69134403F5306387
:105220001A46202393603B68DBB21946786806F083
:10523000EDF81DE03B68002B14D179683A681346FD
:10524000DB0013449B000B4403F519731B68002B10
:1052500008D17B6818687B6803F29C431A460021DA
:1052600003F09EFD3B68DBB21946786806F0CEF885
:10527000002318462037BD4680BD00BF0A30544F7A
:105280000A31544F80B586B000AF786039607B68D2
:105290001B687B617B693B617B693C3304331B6822
:1052A000FB603B685A013B69134403F530639B681C
:1052B000BB60FB68154A93420ED9BB6803F40043F8
:1052C000002B09D03B685A013B69134403F5306356
:1052D0001A464FF400439360786806F085F8FB683F
:1052E0000A4A93420CD97B689B79012B08D17B68D1
:1052F00018687B6803F29C431A46012103F050FDB5
:10530000002318461837BD4680BD00BF0A30544FF1
:1053100080B485B000AF78600B46FB7013463B80CD
:105320007B681B685B6ABB60FB78002B07D13B88FE
:1053300019047B681B68BA680A439A6228E07B6894
:105340001B689B6A1B0CBA681344BB600023FB7389
:105350000DE07B681A68FB7B40339B0013445B685D
:105360001B0CBA681344BB60FB7B0133FB73FA7BF5
:10537000FB78013B9A42ECD33B8818047B681968A0
:10538000FB78013BBA68024340339B000B445A60F0
:10539000002318461437BD465DF8047B704780B47F
:1053A00083B000AF78600B467B807B681B687A888F
:1053B0005A62002318460C37BD465DF8047B7047DF
:1053C00080B483B000AF78600B46FB7000BF0C3731
:1053D000BD465DF8047B704780B586B000AF78604D
:1053E0007B68002B01D1012367E27B681B6803F017
:1053F0000103002B75D0884B9B6803F00C03042B32
:105400000CD0854B9B6803F00C03082B12D1824B08
:105410005B6803F48003B3F5800F0BD17E4B1B68F0
:1054200003F40033002B5BD07B685B68002B57D103
:10543000012342E27B685B68B3F5803F06D1764B7F
:105440001B68754A43F4803313601DE07B685B681A
:10545000B3F5A02F0CD1704B1B686F4A43F4802327
:1054600013606D4B1B686C4A43F4803313600BE090
:10547000694B1B68684A23F480331360664B1B68D2
:10548000654A23F4802313607B685B68002B13D08C
:10549000FCF792FD386108E0FCF78EFD02463B699F
:1054A000D31A642B01D9032307E25B4B1B6803F477
:1054B0000033002BF0D014E0FCF77EFD386108E0EB
:1054C000FCF77AFD02463B69D31A642B01D903230A
:1054D000F3E1514B1B6803F40033002BF0D100E0E3
:1054E00000BF7B681B6803F00203002B63D04A4BAC
:1054F0009B6803F00C03002B0BD0474B9B6803F019
:105500000C03082B1CD1444B5B6803F48003002B75
:1055100016D1414B1B6803F00203002B05D07B68BA
:10552000DB68012B01D00123C7E13B4B1B6823F053
:10553000F8027B681B69DB00374913430B603AE0D4
:105540007B68DB68002B20D0344B01221A60FCF70B
:1055500033FD386108E0FCF72FFD02463B69D31AA2
:10556000022B01D90323A8E12B4B1B6803F0020394
:10557000002BF0D0284B1B6823F0F8027B681B69D6
:10558000DB00254913430B6015E0244B00221A6011
:10559000FCF712FD386108E0FCF70EFD02463B699E
:1055A000D31A022B01D9032387E11B4B1B6803F09D
:1055B0000203002BF0D17B681B6803F00803002B6B
:1055C00036D07B685B69002B16D0154B01221A6020
:1055D000FCF7F2FC386108E0FCF7EEFC02463B69A0
:1055E000D31A022B01D9032367E10B4B5B6F03F046
:1055F0000203002BF0D01BE0094B00221A60FCF7DD
:10560000DBFC38610EE0FCF7D7FC02463B69D31A9D
:10561000022B07D9032350E1003802400000474223
:10562000800E4742884B5B6F03F00203002BEAD1E8
:105630007B681B6803F00403002B00F097800023B5
:10564000FB75814B1B6C03F08053002B0FD10023A3
:10565000BB607D4B1B6C7C4A43F0805313647A4BD8
:105660001B6C03F08053BB60BB680123FB75774B59
:105670001B6803F48073002B18D1744B1B68734AAA
:1056800043F480731360FCF797FC386108E0FCF783
:1056900093FC02463B69D31A022B01D903230CE188
:1056A0006A4B1B6803F48073002BF0D07B689B6807
:1056B000012B06D1644B1B6F634A43F00103136750
:1056C0001CE07B689B68052B0CD15F4B1B6F5E4A0F
:1056D00043F0040313675C4B1B6F5B4A43F0010309
:1056E00013670BE0584B1B6F574A23F001031367F6
:1056F000554B1B6F544A23F0040313677B689B6868
:10570000002B15D0FCF758FC38610AE0FCF754FC7C
:1057100002463B69D31A41F28832934201D90323EE
:10572000CBE0494B1B6F03F00203002BEED014E0DB
:10573000FCF742FC38610AE0FCF73EFC02463B699C
:10574000D31A41F28832934201D90323B5E03E4B8C
:105750001B6F03F00203002BEED1FB7D012B05D163
:10576000394B1B6C384A23F0805313647B689B6968
:10577000002B00F0A180344B9B6803F00C03082B36
:105780005CD07B689B69022B41D1314B00221A60AF
:10579000FCF712FC386108E0FCF70EFC02463B699E
:1057A000D31A022B01D9032387E0274B1B6803F090
:1057B0000073002BF0D17B68DA697B681B6A1A439F
:1057C0007B685B6A9B011A437B689B6A5B08013BB1
:1057D0001B041A437B68DB6A1B061B4913434B609F
:1057E0001B4B01221A60FCF7E7FB386108E0FCF76D
:1057F000E3FB02463B69D31A022B01D903235CE089
:10580000114B1B6803F00073002BF0D054E0104BD9
:1058100000221A60FCF7D0FB386108E0FCF7CCFBF3
:1058200002463B69D31A022B01D9032345E0064BFC
:105830001B6803F00073002BF0D13DE07B689B698F
:10584000012B07D1012338E00038024000700040EE
:10585000600047421B4B5B68FB607B689B69012BC8
:1058600028D0FB6803F480027B68DB699A4221D16F
:10587000FB6803F03F027B681B6A9A421AD1FA6800
:1058800047F6C07313407A68526A9201934211D16D
:10589000FB6803F440327B689B6A5B08013B1B0496
:1058A0009A4207D1FB6803F070627B68DB6A1B06D3
:1058B0009A4201D0012300E0002318461837BD4664
:1058C00080BD00BF0038024080B584B000AF786072
:1058D00039607B68002B01D10123CCE0684B1B6849
:1058E00003F007033A689A420CD9654B3A68D2B282
:1058F0001A70634B1B6803F007033A689A4201D0A1
:105900000123B8E07B681B6803F00203002B20D062
:105910007B681B6803F00403002B05D0594B9B6880
:10592000584A43F4E05393607B681B6803F0080314
:10593000002B05D0534B9B68524A43F4604393605D
:10594000504B9B6823F0F0027B689B684D491343E2
:105950008B607B681B6803F00103002B44D07B68DD
:105960005B68012B07D1474B1B6803F40033002B06
:1059700019D101237FE07B685B68022B03D07B6831
:105980005B68032B07D13F4B1B6803F00073002BB0
:1059900009D101236FE03B4B1B6803F00203002B8E
:1059A00001D1012367E0374B9B6823F003027B683A
:1059B0005B68344913438B60FCF7FEFAF8600AE039
:1059C000FCF7FAFA0246FB68D31A41F28832934296
:1059D00001D903234FE02B4B9B6803F00C027B683B
:1059E0005B689B009A42EBD1254B1B6803F00703D1
:1059F0003A689A420CD2224B3A68D2B21A70204BC3
:105A00001B6803F007033A689A4201D0012332E091
:105A10007B681B6803F00403002B08D0194B9B68BC
:105A200023F4E0527B68DB68164913438B607B6884
:105A30001B6803F00803002B09D0124B9B6823F46A
:105A400060427B681B69DB000E4913438B6000F0EA
:105A500021F802460B4B9B681B0903F00F030A4910
:105A6000CB5C22FA03F3094A1360094B1B68184602
:105A7000FCF75EFA002318461037BD4680BD00BF14
:105A8000003C024000380240D0E200080000002044
:105A9000040000202DE9B04F94B000AF00237B64D8
:105AA0000023FB6400233B640023BB64794B9B68A9
:105AB00003F00C03082B0DD0082B00F2E180002B23
:105AC00002D0042B03D0DBE0734BBB64DBE0734BF1
:105AD000BB64D8E06F4B5B6803F03F037B646D4BA6
